:1000000004308A000F2C00004F004B002000412AD2
:100010000D050000412AAB21CD23C61EB1060A0002
:10002000412AAB21CD23D31EA212E312E312E31225
:10003000E312E312E312E312E31263110D05000071
:1000400050294F25452A4F10C324451DD637E3328A
:100050002038EF39F33A6910A53A20376F3B611425
:10006000F314A0316F39F23273386F37E432EE3166
:10007000E930A839A9060A00A030840083130008DB
:1000800003194F280630F800F701F70B4528F80B45
:1000900044287B30F700F70B4B28800B42280800E0
:1000A000831609118312091501308316A0008312EB
:1000B0003C20831688017E08831288000130831655
:1000C000A00083123C208316091183120911080035
:1000D00083160910831209103830FE0050200630B4
:1000E000FE0050200C30FE0050200130FE00502059
:1000F000831609108312091403308316A00083129B
:100100003C2008003030FB00FC00F608031D8C2862
:100110007508093C031894280A30F5020030031CC6
:100120000130F602FB0A8528F608031D9B28750896
:10013000003C0318A3280130F5020030031C0130F5
:10014000F602FC0A94288316091083120910CD3098
:10015000FE00502083160910831209147B08FE004C
:1001600050207C08FE0050200800831603178C17CF
:100170000C140000000083120C087F390319EF28CB
:10018000FB000D08FC000F08FD007B0803130C1E8C
:10019000C72899007C0803178D007D088F008316FF
:1001A0008C170C140000000083120C0D0E0D7F390B
:1001B0000319EF28FB000D08FC000F08FD007B0869
:1001C00003130C1EE12899007C0803178D007D089D
:1001D0008F008D0A03198F0A0313B5280317031321
:1001E0000800831603178C170C1400000000031876
:1001F000132983120C087F39FB000D08FC000F083F
:10020000FD007B0803130C1E032999007C080317CB
:100210008D007D088F0083168C170C1400000000E1
:10022000F50B1329302983120C0D0E0D7F39FB00BD
:100230000D08FC000F08FD007B0803130C1E1E298F
:1002400099007C0803178D007D088F008D0A031923
:100250008F0A0310F50B2D292F290313F12883167C
:100260008312031308007C08F8017B0203183B2962
:100270007B08F7004729F7010830FD00FB0DF70D5B
:100280007C0877020318F700F80DFD0B3E290800E3
:1002900078087508FB006430FC0033217708F5000E
:1002A00078083030031D5B29F61C6329F619632991
:1002B000761A20305E29F61176127614F80778083F
:1002C0000C1E602999007508FB000A30FC003321E0
:1002D0007708F50078083030031D7429F61979295C
:1002E000761C7929761A2030F80778080C1E7629B2
:1002F00099003030F50775080C1E7C2999008A1189
:100300000A12B62DF301143003178D0073088C0008
:1003100083168C130C15831203130B08F7008B1331
:100320008316031755308D00AA308D008C148C185D
:1003300097290C117708831203138B048316091075
:1003400083120910CD30FE0050208316091083124D
:1003500009142030FE0050208A110A12D62D83166F
:1003600003178C170C140000000083120C087F394F
:100370000319E729FB000D08FC000F08FD007B08AE
:10038000FE00031350207C0803178D007D088F00AA
:1003900083168C170C140000000083120C0D0E0D38
:1003A0007F390319E729FB000D08FC000F08FD0049
:1003B0007B08FE00031350207C0803178D007D0886
:1003C0008F008D0A03198F0A0313AF290317031334
:1003D000080083160910831209108030FE00502097
:1003E0000F30FE005020831609108312091442308A
:1003F00064078400831380080319082A42306407C5
:10040000840083130008F500FE005020E40AF72959
:100410008316091083120910C030FE005020831685
:100420000910831209145330650784008313800870
:100430000319242A53306507840083130008F5004C
:10044000FE005020E50A132A2030F100831609101F
:1004500083120910C630FE00502083160910831243
:10046000091474167408831687008312071A0C2C5B
:10047000E401E50102308316A00083123C208316BC
:1004800086108312861483160611831206158316AE
:10049000861183128611831686178312861B652A9E
:1004A0007008083C031C652A831686178312861F72
:1004B000542A3330F10067307007840083137108C9
:1004C0008000F00A7108FE00502083160617831280
:1004D000061B7F2A7008083C031C7F2A8316061718
:1004E0008312061F6E2A3630F100673070078400D1
:1004F000831371088000F00A7108FE0050208316F3
:1005000086168312861A992A7008083C031C992AB9
:10051000831686168312861E882A3930F1006730CA
:1005200070078400831371088000F00A7108FE00D0
:100530005020831606168312061A012B8316061600
:100540008312061E9E2AF0017008083C031CCB2A69
:1005500067307007840083130008F50070080317E4
:100560008D0075088C0083168C130C1583120313F1
:100570000B08F7008B138316031755308D00AA3034
:100580008D008C148C18C22A0C1177088312031367
:100590008B04F00AA42AF0018316091083120910B3
:1005A0000130FE005020C730FE0050208316091095
:1005B00083120914043003178D0000308F000313D9
:1005C000AF21053003178D0000308F000313AF21DA
:1005D00074167408831687008312071EE82A673092
:1005E00070078400831380080319002B673070079D
:1005F000840083130008F500FE005020F00AEF2A63
:10060000F00102308316A00083123C20831686106E
:10061000831286148316061183120611831686111F
:1006200083128615831686178312861B2C2B70085F
:10063000083C031C2C2B831686178312861F1B2B4A
:100640003230F10067307007840083137108800036
:10065000F00A7108FE005020831606178312061B4D
:10066000462B7008083C031C462B83160617831282
:10067000061F352B3530F100673070078400831377
:1006800071088000F00A7108FE005020831686165B
:100690008312861A602B7008083C031C602B83169B
:1006A00086168312861E4F2B3830F1006730700794
:1006B0008400831371088000F00A7108FE00502046
:1006C000831606168312061A7A2B7008083C031C40
:1006D0007A2B831606168312061E692B3030F10022
:1006E000673070078400831371088000F00A710876
:1006F000FE00502002308316A00083123C20831697
:10070000861083128610831606118312061583162F
:10071000861183128615831686178312861BA52BD6
:100720007008083C031CA52B831686178312861FAE
:10073000942B3130F1006730700784008313710807
:100740008000F00A7108FE005020831606178312FD
:10075000061BBF2B7008083C031CBF2B8316061713
:100760008312061FAE2B3430F1006730700784000F
:10077000831371088000F00A7108FE005020831670
:1007800086168312861AD92B7008083C031CD92BB5
:10079000831686168312861EC82B3730F100673009
:1007A00070078400831371088000F00A7108FE004E
:1007B0005020831606168312061A0B2C7008093C6B
:1007C000031C0B2CF00803190B2C8316061683123E
:1007D000061EE52B83160910831209100430FE0053
:1007E00050200F30FE005020831609108312091488
:1007F000063003178D0000308F000313AF21F00384
:1008000083160910831209100630FE00502083164B
:10081000091083120914312A8A110A12FA2D84014F
:1008200083131F308305813083169900A63098000A
:10083000903083129800E401E501E601F201FF30F7
:10084000F40083161F149F141F159F1107309C007E
:1008500020308312A0004530A1005430A200453062
:10086000A3004330A4002030A5005030A60045303E
:10087000A7005230A8005530A9005330AA002030FC
:10088000AB00AC01B1004D30B2004530B3004E308A
:10089000B4005330B5004130B6004730B7004530A2
:1008A000B8004E30B9005330BA002030BB003D30A4
:1008B000BC00BD012030C2005030C3005230C40023
:1008C0004F30C5004730C6005230C7004130C80025
:1008D0004D30C9004130CA004330CB004130CC001C
:1008E0004F30CD00CE012030D3005430D4004530FD
:1008F000D5004C30D6003A30D7002030D800D9018E
:100900007415740883168700831297018316811368
:100910008910831289106820F001F412740883167C
:100920008700831287120A30F500FA308316A00080
:1009300083123C20F50B952CF41274088316870063
:1009400083128716143003178D0083168C130C1432
:1009500083120C08F300F6017308F50003138220DC
:100960007008083C031CC42C673070078400831394
:10097000700803178D0083168C130C1483120C0857
:100980008000F00A0313B02CF001831609108312C3
:1009900009108030FE0050208316091083120914BC
:1009A000203064078400831380080319E12C203071
:1009B0006407840083130008F500FE005020E40A59
:1009C000D02C8316091083120910C030FE0050206D
:1009D00083160910831209143130650784008313CC
:1009E00080080319FD2C313065078400831300084B
:1009F000F500FE005020E50AEC2C83160910831246
:100A00000910CE30FE0050208316091083120914FD
:100A10007414740883168700831207181D2DF414AC
:100A2000740883168700831287181D2D74157408A7
:100A3000831687008312071DCE2DE608031DCE2DD9
:100A4000E608031D2B2DC8308316A00083123C201E
:100A50000130E600202DF30A143003178D007308CF
:100A60008C0083168C130C15831203130B08F700EC
:100A70008B138316031755308D00AA308D008C140C
:100A80008C18402D0C117708831203138B04F60188
:100A90007308F5008220FA308316A00083123C20F0
:100AA000073003178D0000308F000313B520C830C6
:100AB0008316A00083123C200A3003178D000030FB
:100AC0008F000313B520C8308316A00083123C208A
:100AD000103003178D0000308F0003100930F5002F
:100AE0000313F12067080C1E732D990068080C1E73
:100AF000772D990069080C1E7B2D99006A080C1E41
:100B00007F2D99006B080C1E832D99006C080C1E1C
:100B1000872D99006D080C1E8B2D99006E080C1EF8
:100B20008F2D99006F080C1E932D990022300C1EFA
:100B3000972D99000D300C1E9B2D99000A300C1E2C
:100B40009F2D9900C8308316A00083123C202030CE
:100B500003178D0000308F0003101830F5000313C9
:100B6000F1207308F5001B30F60048292D300317DB
:100B70008D0000308F0003101D30F5000313F120AD
:100B8000FA308316A00083123C201A300C1EC62DAA
:100B90009900FA308316A00083123C20F4157408E3
:100BA000831687008312871DDA2D8229F6017308C8
:100BB000F5008220F41474088316870083128718C6
:100BC000EF2D741574088316870083120719EF2D13
:100BD00074147408831687008312071CE6017416C8
:100BE0007408831687008312071A002E6820E40118
:100BF000E501E9296820F6017308F5008220EF2D50
:040C0000C52C63009C
:02400E00323F3F
:00000001FF
;PIC16F877A
;CRC=674E  CREATED="17-jun-14 17:17"
